:020000041000EA
:1000000000B5324B212058609868022188439860DF
:10001000D860186158612E4B002199600221596106
:100020000121F02299502B49196001219960352056
:1000300000F044F80222904214D00621196600F024
:1000400034F8196E01211966002018661A6600F04E
:100050002CF8196E196E196E052000F02FF8012189
:100060000842F9D1002199601B49196000215960AB
:100070001A491B48016001219960EB211966A021F2
:10008000196600F012F800219960164914480160C1
:100090000121996001BC002800D000471248134993
:1000A000086003C880F30888084703B5996A0420EC
:1000B0000142FBD001200142F8D103BD02B5186610
:1000C0001866FFF7F2FF186E186E02BD00000240BE
:1000D000000000180000070000035F00212200005C
:1000E000F4000018222000A00001001008ED00E03C
:1000F00000000000000000000000000074B24E7A12
:1001000000200420F7010010C3010010C5010010F9
:10011000C1010010C1010010C1010010C101001097
:10012000C1010010C1010010C1010010C701001081
:10013000C1010010C1010010C9010010CB01001065
:10014000CD010010CD010010CD010010CD01001037
:10015000CD010010CD010010CD010010CD01001027
:10016000CD010010CD010010CD010010CD01001017
:10017000CD010010CD010010CD010010CD01001007
:10018000CD010010CD010010CD010010CD010010F7
:10019000CD010010CD010010CD010010CD010010E7
:1001A000CD010010CD010010CD010010CD010010D7
:1001B000CD010010CD010010CD010010CD010010C7
:1001C00000BE00BE00BE00BE00BE00BEEFF3058054
:1001D000103800BEF2EB8871748100109881001015
:1001E0003402001090A31AE700201F49086006C8D7
:1001F00081F3088810471D48006800282FD10DA4FE
:100200000ECC002902D000F012F8F9E71849194A7B
:10021000002000E001C19142FCD1174988471749ED
:1002200088471749884700BEFDE701C901C29A42C5
:10023000FBD3704798810010C0000020A00C002064
:10024000788D00100000042000000420788D00103C
:10025000001004200010042000000000704709482E
:1002600003F0D6F80047000008ED00E0000000D0E1
:10027000A00C0020241A0020E921001055030010D2
:10028000A52100105756000006005250ABB3605332
:10029000387B001006005250861C0302487B001079
:1002A000060052505422A29D547B0010050052506B
:1002B000DE65F468788D0010F8B5C0460448054B3B
:1002C00010B5834203D0044B002B00D0984710BDDB
:1002D000A00C0020A00C00200000000006480749E8
:1002E000091A8910CB0F591810B5491003D0044BC7
:1002F000002B00D0984710BDA00C0020A00C0020BF
:100300000000000010B5074C2378002B09D1FFF73F
:10031000D5FF054B002B02D0044800E000BF0123AD
:10032000237010BDA80D002000000000706C0010AC
:10033000054B10B5002B03D00449054800E000BF71
:10034000FFF7CCFF10BDC04600000000AC0D002040
:10035000706C001010B504F00DF90A2000F0A0F840
:10036000D02424068023DB0063620B2000F098F881
:1003700080231B0163620C2000F092F880235B0154
:1003800063620D2000F08CF880239B01A3620022A1
:1003900001210D2000F06AF80E2000F081F8802382
:1003A000DB01A362002201210E2000F05FF80F2084
:1003B00000F076F880231B02A362002201210F20A7
:1003C00000F054F816E0D02109068020C0008861B2
:1003D00022E0D022120680210901916123E0D0237E
:1003E0001B06802252019A61D0231B0659681248CD
:1003F00004F0B4F8D0231B065968490B01205A6851
:10040000920B02405B68DB0B03400842DBD1D0213A
:1004100009068020C0004861002ADAD1D0221206E5
:10042000802109015161002BD9D1D0231B068022E4
:1004300052015A61D8E7C046706C001010B58300B5
:10044000084A944663441C6840226240C024144019
:100450008022520113431C60C000034B9C46604441
:10046000416010BD04C001400040014080000B4BC2
:100470009C46604400290DD00823002A0CD0042299
:100480001343026853400C22134080225201104350
:10049000036070470023F0E70022F1E704C0014049
:1004A00010B501238340D022120693629361052187
:1004B000FFF7C4FF10BD0000034B1B68022018406B
:1004C000431E9841C0B2704700C00640EFF3108051
:1004D00072B6034B1B68002BFBD0BFF35F8F7047D6
:1004E0002C0100D0BFF35F8F024B00221A6080F313
:1004F000108870472C0100D070B505000E00140064
:10050000FFF7E4FFF208AA1815780721314001230C
:100510008B402B4205D1DBB22B431370FFF7E2FF78
:1005200070BD3100200001F0DBFEF0B583B00700A4
:10053000019114001E00FFF7C9FFB4420ED8E20873
:10054000BA1815780721214001238B402B4201D096
:100550000134F2E7DBB22B43137001E00124644263
:10056000FFF7C0FF002C02DB200003B0F0BD019BB1
:10057000002BF9D0089801F0B3FE000000231F2BD8
:1005800008D8054A9A189200BFF35F8F00211160C6
:100590000133F4E77047C04640000034054A107844
:1005A000431CDBB21370172B02D9130010221A70F0
:1005B0007047C046A80B002000B583B00100044B73
:1005C00000931F2318220348FFF7AFFF03B000BDBD
:1005D000846C001060120020074B9B681030800074
:1005E0001950BFF35F8FBFF35F8F044B0021196079
:1005F00082F310887047C04600ED00E0240100D06F
:1006000010B5091A0B1F0A4A94466144094A9142DF
:1006100008D8DA0706D45B105B055B0D0648184363
:1006200080B210BD054B064AA321064801F0BEFD6D
:10063000FC070000FE0F000000E0FFFFD46E00107A
:10064000BC6C0010046F001010B5091A04394C0876
:10065000090B08D14905490D064A11430180064B93
:100660002343438010BD054B054AAB21054801F0EB
:100670009DFDC04600F0FFFF00F8FFFF386D001041
:10068000C86C0010046F001001238340034A1068F7
:100690001840431E9841C0B27047C04600E100E0D8
:1006A000002904D0034B1860034B18607047034BBC
:1006B0001860FBE780E200E000E100E080E100E09C
:1006C00010B5012383401800FFF7EAFF10BD0000BA
:1006D00001238340014A13607047C04600E200E0F6
:1006E000024B9B6810308000C058704700ED00E05E
:1006F00010B5FFF7F5FF002805D0054BC01A2F28CD
:1007000003D8012010BD0020FCE70020FAE7C04616
:10071000AC0B002070B504000D00EFF3108672B62C
:100720000C4B1B68002BFBD0BFF35F8F2000FFF743
:10073000D7FF094B984201D0A84205D132002900C9
:100740002000FFF749FF70BD044B054A862105488C
:1007500001F02CFD240100D0CD0100109C6E001092
:10076000A06C0010046F0010F0B5DE4657464E46F0
:100770004546E0B589B0019003911700EFF3108B67
:1007800072B6714B1B68002BFBD0BFF35F8F6F4BB2
:1007900000255D57002D40DB6B005B199A006C480B
:1007A0001318029306229A56684B1A70694B9A687E
:1007B000019B10339B00D6583400331A2F2B38D9A5
:1007C000654B9E422FD105AC644B23806B009A464B
:1007D0005B1998005E4E801902306149FFF710FFE7
:1007E0006080604BA380FF23A371E771039BA3602C
:1007F0005544AB00F6180ECC0EC60126029B3343BF
:100800001E005A4631000198FFF7E6FE09B03CBCD5
:1008100090469946A246AB46F0BD534B534AD7216A
:10082000534801F0C3FC534B504ADE21504801F0BD
:10083000BDFCC04330180C2102F03EFE002912D14D
:1008400001239C43A24623000024DA79BA4211D93D
:100850000621595600290CDB4A00521891001C0051
:100860003B4B5B18F1E7444B404AEA21404801F01A
:100870009DFC1C00002C3AD005AB404A1A80813AFE
:100880005A800623E3569846002B17DA3C4805ABFE
:100890009A46988042469A71DF71039A0792201D0A
:1008A0000299FFF7ADFEA080A5716B005D19AA004B
:1008B000274B9B18524613CA13C3A2E76B005B1960
:1008C0009800234BC0180430221DA388D90A1C2984
:1008D00007D159054915023149005118FFF790FE1B
:1008E000D5E7284B284AB121214801F05FFC05AC2F
:1008F0001A4B23806B005B199800154E8046B0445C
:100900004346981C1649FFF77BFE60804346181D3E
:100910005146FFF775FEA0801C4B5246921B524178
:1009200053431B0DA371E771039BA36046460ECC96
:100930000EC6124B52461380813B53800126029B08
:1009400033431E005DE7C046240100D05D17002040
:10095000AC0B002000ED00E0CD01001000A1FFFF76
:10096000DC0B002001BDFFFF486D0010F06C001093
:10097000046F0010706D0010986D001001480000A9
:1009800001BD00000C6E0010E06C0010AAAA00006F
:10099000F0B5C64600B584B001900D00EFF31086A7
:1009A00072B6554B1B68002BFBD0BFF35F8F534BC8
:1009B0009A68019C1034A300D758514B9F4207D02E
:1009C000AF4200D195E002974E4BFB1A2F2B08D96E
:1009D000320039000198FFF7FFFD04B004BC9046D7
:1009E000F0BD0198FFF750FE039000210198FFF73A
:1009F00067FEBFF35F8FEFF30581002901D08C42C2
:100A000011D10123029C9C430020A368AB4212D069
:100A10000622A256002A0DDB53009B189A002000E4
:100A2000384CA418F1E73621374B384AFF313848A3
:100A300001F0BCFB2000AB4254D10623E35698469C
:100A4000002B35DB5A00424491002E4B5B189A680C
:100A5000A260DA79E2719B795BB2A371002B11DAA3
:100A60002C48A08043465B0043449A00254B9B18CA
:100A7000294A117899714346137003990198FFF739
:100A80001FFEA5E7201D1F4A8B181A1D9B88D90A37
:100A90001C2907D159054915023149005118FFF7A2
:100AA000AFFDDEE71D4B1E4AB121194801F07EFB68
:100AB000002912D100280ED0FF238371194B8380A7
:100AC000154A1378A371184B0E49641A64416343A5
:100AD0001B0D1370D1E70A4FF2E7201D1349FFF7F2
:100AE000B3FDCAE76A21124B084AFF31084801F0FA
:100AF0005DFB034F6CE7C046240100D000ED00E031
:100B0000CD010010AC0B0020606E0010086D0010CD
:100B1000046F001001BD00005D1700200C6E001076
:100B2000E06C001001BDFFFFAAAA0000E60B002048
:100B3000946E0010F8B5012101432E4BCB1A2F2BD8
:100B400028D8EFF30583002B2BD0EFF3108572B676
:100B5000294A1268002AFBD0BFF35F8F274A04009E
:100B6000244EA41B64416243120D54B2244A92687D
:100B70009B00D2588A421BD00023032B32D85A0044
:100B8000D21891001B4A5218927952B2A2421FD039
:100B90000133F2E7C7211B4B1B4A49001B4801F0F8
:100BA00005FB92211A4B184AFF31184801F0FEFA52
:100BB000134A92681749D150174B1A7882711C70EA
:100BC000BFF35F8F0C4B00221A6085F31088F8BDCD
:100BD00008495A00D718BE008E19FF27B7710F4B6E
:100BE000B380E9E7D1210E4B074A4900074801F0DD
:100BF000DDFAC046AC0B0020240100D0AAAA0000F8
:100C000000ED00E0246E00101C6D0010046F001059
:100C10004C6E0010CD0100105D17002001BDFFFFDC
:100C2000586E00100022044B02E0044902C3013256
:100C3000072AFAD97047C04600E400E0808080802F
:100C400000B583B00100064B009305230022054840
:100C5000FFF76BFC002801DB1F23181A03B000BD4F
:100C6000406F001062170020024B9C4661448900CF
:100C7000016070474000003410B50400FFF78EFC9F
:100C800001002000FFF7F0FFFF232371BFF35F8F08
:100C900010BD10B50400FFF781FC01002000FFF734
:100CA000E3FFFF23237100236371BFF35F8F10BD48
:100CB000034B9C46614489000160BFF35F8F70471E
:100CC0004000003410B504000120FFF775FC01005E
:100CD0002000FFF7EDFF10BD0A4B1A68EFF31081FB
:100CE00072B61368002BFCD0BFF35F8F054B1B68F7
:100CF000BFF35F8F00221A6081F3108840BF00208D
:100D0000002170472C17002070B505000C0008006A
:100D100000F0F2FD0949200000F032FDFFF73EFC33
:100D2000074B9C466044800068602C75D0231B06EE
:100D30001B786B75A400034BE55070BD29100010A3
:100D4000400000341017002010B5002922D003689D
:100D50001B7B99421ED8174B9C466144090183684E
:100D60009C4661440C684968002A19D003681B7BC3
:100D70009A4215D883680F488446624412019A1833
:100D800010685368020001208B4201D80ED0002069
:100D9000C0B210BD084B094A3C21094801F006FACF
:100DA000054B064A3C21064801F000FAA242EFD862
:100DB000EDE7C046FFFFFF0F4C730010DC70001022
:100DC0001473001010B500291ED0037B99421BD864
:100DD0004B005B18033B0468A4466344002919D008
:100DE000002A1DD0914221D0002A25D0047BA242A6
:100DF00022D80468500080180338201881701978B0
:100E000000291FD11A7010BD104B114A68211148DA
:100E100001F0CCF9104B114A6F310E4801F0C6F9C0
:100E20000F4B0E4A70210B4801F0C0F90D4B0B4AD5
:100E30007121084801F0BAF9044B054A68210548B8
:100E400001F0B4F941701A70DDE7C0466C72001011
:100E50009C70001088720010D0720010A8700010F2
:100E6000DC720010E872001070B506000D0014006E
:100E7000002914D0002A14D080687368984700288D
:100E800006D0220029003000FFF79CFF280007E071
:100E90002A0021003000FFF795FF200000E010003D
:100EA00070BD0800FCE7000070B5CE4600B583B009
:100EB0000500009201930AAB1C780BAB1B78994696
:100EC000002C28D003685A7B944209D10123002BBF
:100ED0001BD1002C3DD1200003B004BC914670BD55
:100EE000002C0CD01A7B944209D81A6863001B1995
:100EF000033BD3189B78002BE9D00123E7E73F4B56
:100F00003F4A68213F4801F051F93F4B3F4A672172
:100F10003F4801F04BF903689C7B002CD9D012D0DC
:100F20001A7B94420FD862001219033A19688C4652
:100F3000624451789973002900D1D97300239370CA
:100F400053701370C5E72D4B2D4A68212D4801F0D1
:100F50002DF9002C3BD02B681B7B9C4237D82D4BA6
:100F6000E3181B01AA68944663440099019A19602A
:100F70005A60089A9A60099ADA602E68002C2CD080
:100F800031D0337B9C422ED863001B19033B32685F
:100F90009446634400229A705A701A70717B220042
:100FA0003000FFF761FF7073844200D093E7287D23
:100FB000009A019B00F02CFC061E02D04B46002B31
:100FC00017D00C9B002B00D185E71E7083E7124BD6
:100FD000124A3C210E4801F0E9F8114B114AA521B3
:100FE000084801F0E3F8054B054A6821054801F07F
:100FF000DDF82868210000F045FEE2E76C72001081
:101000009C70001088720010607100101471001044
:1010100014730010FFFFFF0F4C730010DC70001002
:1010200010730010BC700010F0B5DE4657464E46F7
:101030004546E0B58BB00990002308938200B54B7C
:10104000D658370052E0B44BB44A3F21B44801F0BF
:10105000ADF8B44BB44A3C21B44801F0A7F8002BDA
:1010600001D1002A68D10021604600F001FEA042B3
:1010700019D12A686B6806920793AB689846EB68AB
:101080009A464346002B14D0002C18D03B681B7B9B
:101090009C4214D8631EFA68D35C08931B02184361
:1010A0003861002015E0A24BA24A8E219F4801F032
:1010B0007DF8A14B9F4A92219C4801F077F8994B0B
:1010C0009E4A4121994801F071F800239A469846BA
:1010D00000207B68BFF35F8F00221A6086F31088C0
:1010E0004346002B31D1002800D10BE100F03CFB3E
:1010F0000029A8DB00230024069307947A68EFF305
:10110000108672B61368002BFCD0BFF35F8F3B686C
:101110009C465C7B002CD8D09BD01B7B9C4298D8F3
:10112000874BE5182D01BB68984645442A686B68D3
:10113000121A8B41002B92DD2A686B68099800F027
:1011400067FB00239A469846C3E7089B1B0223438C
:10115000994651461800C04705000E007A68EFF323
:10116000108B72B61368002BFCD0BFF35F8F002E7C
:101170001FDB002E47DD3B69002B48D04B4570D16B
:1011800000F0F2FA002972DB2A00330012184B41FA
:10119000002B72DB002B74DB0021049101310391E1
:1011A000029451460191414600913800FFF77CFEC0
:1011B0004EE03B69002BDCD04B4514D1069A079BCF
:1011C000521BB341002B14DB002B16DB00210491D2
:1011D000013103910294514601914146009138003A
:1011E000FFF762FE34E0574B524AA1214F4800F00E
:1011F000DDFF01225242544BE6E7474B474A3F216D
:10120000474800F0D3FF002E01D1002DB3D13B6839
:10121000002C52D05A7B944239D10122002A4CD161
:10122000DA7B002A4FD19A7B002A03D1DA7B002A8D
:101230005CD19C73DC73002C5ED03B681B7B9C42B2
:101240005AD8013CFB689C466444237801332370E0
:1012500000233B617A68BFF35F8F13608BF31088C4
:1012600044E7384B334AA421304800F09FFF2A4B13
:101270002A4A3F212A4800F099FF01225242324B6C
:1012800088E7254B254A3F21254800F08FFF002C99
:101290000DD01A7B94420AD862001219033A1968D9
:1012A0008C4662449278002AB8D00122B6E7274BD8
:1012B000274A6821274800F079FF274B274AF62163
:1012C000244800F073FF002A0AD0197B8A4207D80D
:1012D00051008A18033A19688C4662445470A2E798
:1012E0001A4B1B4A68211B4800F060FF1C4B1B4A2D
:1012F000FB21184800F05AFF0A4B104A41210B48C5
:1013000000F054FF0BB03CBC90469946A246AB4659
:10131000F0BDC04610170020EC6F00108470001064
:10132000087000104C730010DC7000101473001073
:10133000887100102C710010A0710010E87000106E
:10134000FFFFFF0FAC710010FFFFFF7F6C720010FA
:101350009C70001088720010E8710010CC700010B2
:101360000C72001010B50C4B5B68002B04D00A21E6
:101370000A48FFF779FC10BD074C2300084A1021EA
:10138000206800F083FB032000F0E2F90321200035
:10139000FFF7BAFCEBE7C046F40B00202C17002047
:1013A000490D001010B5064B5B68002B01D00448B6
:1013B00010BD044B044A5E21044800F0F7FEC0460D
:1013C000F40B002048720010FC7000101473001021
:1013D000F0B5D6464F464646C0B588B080461600A2
:1013E0001F00109B994612AB1B789A461F236B4433
:1013F00000221A702CE0002809D042461268127BA5
:10140000904204D8421E4146C9688A5C3CE03C4B8D
:101410003C4A41213C4800F0C9FE0020002B67D027
:101420005346002B64D01199C84704000D000300F7
:101430000B4363D0002939DB00F096F9002945DB26
:1014400024184D41002D47DB002D49DB26002F00DD
:1014500043465A68EFF3108472B61368002BFCD031
:10146000BFF35F8F1F236B44049300230393029306
:10147000119B01934B46009332003B004046FFF71F
:1014800013FD031EB7D1020041464968BFF35F8FC9
:1014900000250D6084F31088002B27D01F236B4498
:1014A0001B78002BB9D112021043B7E7361BAF41AE
:1014B000002F07DB002FCBDA144B154A3F211548CC
:1014C00000F074FE01267642134FF3E70F4B104AEB
:1014D0003F21104800F06AFE012464420E4DB3E73C
:1014E0000A4B0B4A3F210B4800F060FE01204042AE
:1014F00008B01CBC90469946A246F0BD0020F7E714
:101500004C730010E870001014730010EC6F0010A2
:101510008470001008700010FFFFFF7F70B504009A
:10152000002961D04268EFF3108572B61368002B72
:10153000FCD0BFF35F8FCEB22268537B9E421BD19B
:10154000012000284AD023698B422DD0090ACBB252
:10155000002E30D02168097B8E422CD8711EE068A5
:10156000415C99422DD000206368BFF35F8F002259
:101570001A6085F3108870BD002E0DD0137B9E423B
:101580000AD873009B19033B1068844663449B7818
:10159000002B07D10020D4E7144B154A68211548C9
:1015A00000F004FE0120CCE72C21134B134AFF313D
:1015B000134800F0FBFD134B134A4121104800F083
:1015C000F5FD3100100000F05DFB0028CCD1992121
:1015D0000E4B0A4A49000A4800F0E8FD23698B4295
:1015E000C2D100232361BFE70020C4E76C72001062
:1015F0009C7000108872001020720010487100105A
:10160000147300104C730010E87000104472001046
:10161000407D704770B584B005000C00EFF3058382
:10162000002B12D0244B5B6A994209D8224A926A55
:10163000824208D2994201D0012002E0002000E05D
:10164000002004B070BD0120FBE7FFF7ABFE0023D4
:1016500002930193194B00932A002300FFF7B8FE71
:10166000061E11DC144B5B6A9C4209D8124A926A2E
:10167000AA4207D29C4201D00120E2E70020E0E725
:101680000020DEE70120DCE720BFFFF78BFE310002
:10169000FFF744FF084B5B6A9C4209D8064A926AEE
:1016A000AA4207D29C4201D00120CAE70020C8E725
:1016B0000020C6E70120C4E700400540D90C001017
:1016C00070B5EFF305801038EFF3108472B61A4B43
:1016D0001B68002BFBD0BFF35F8F012213008340F8
:1016E00016494B6316490B60164909780D00C54031
:1016F0002A4214D0114A556A8200134E92599542DB
:1017000006D38200114D525999430E4B197007E0D0
:101710000A4A031D9B0099589950002200E00022BC
:10172000BFF35F8F044B0021196084F31088002AF7
:1017300000D0904770BDC046280100D00040054051
:101740003C70054061170020381700204811002028
:1017500010B50100024A0348FEF7CEFE10BDC04698
:101760008C7300105C170020044B596A00E01900CC
:10177000024B986A5B6A9942F9D170470040054074
:1017800070B504000D00EFF3108672B61B4B1B689A
:10179000002BFBD0BFF35F8F002D1CD02000FEF785
:1017A0009FFF174B98420BD019002000FEF7B2FFA5
:1017B00001212000FEF784FF0123A340114A13609A
:1017C000A400114BE550BFF35F8F0C4B00221A6051
:1017D00086F3108870BDA2000B4B0021D15001226E
:1017E000A2400A490B7893430B7005492000FFF78C
:1017F000CFF800212000FEF763FFE4E7280100D0C6
:10180000C116001038600540481100206117002003
:10181000F0B5DE4600B584B00500140001921E004C
:101820000293FFF7A1FF03948E4202D84ED1844267
:101830004CD9EFF3108B72B6274B1B68002BFBD0F3
:10184000BFF35F8F254A17780124AC40E3B23B43D6
:101850001370234B5C632A1D92000199D150AA009A
:101860002049029850501B6A234212D11C4B1B6C1A
:10187000234208D00020BFF35F8F174B00221A606D
:101880008BF3108823E0184B184AC521184800F044
:101890008DFCFFF769FF8E4214D802D1039B83426F
:1018A00010D80E4B1B78BB420ED00D4B1C625C63F4
:1018B0001F222A40012393400E4A1360074B1F70DA
:1018C0000120D8E70020D6E70120D4E7012004B0AA
:1018D00004BC9346F0BDC046280100D0611700202B
:1018E0000040054038170020B073001070730010DE
:1018F000D473001080E200E010B5EFF3108472B6EC
:101900000A4B1B68002BFBD0BFF35F8F0123834082
:10191000074A136207490A789A430A70BFF35F8F38
:10192000024B00221A6084F3108810BD280100D0F9
:10193000004005406117002010B500291ED0037B30
:1019400099421BD84B005B18033B0468A4466344D0
:10195000002919D0002A1DD0914221D0002A25D07B
:10196000047BA24222D80468500080180338201853
:101970008170197800291FD11A7010BD104B114ABF
:101980006821114800F012FC104B114A6F310E48CB
:1019900000F00CFC0F4B0E4A70210B4800F006FCC7
:1019A0000D4B0B4A7121084800F000FC044B054A1E
:1019B0006821054800F0FAFB41701A70DDE7C04667
:1019C0006C7200101474001088720010D072001035
:1019D00020740010DC720010E872001070B5060070
:1019E0000D001400002914D0002A14D080687368F8
:1019F0009847002806D0220029003000FFF79CFFFE
:101A0000280007E02A0021003000FFF795FF2000A2
:101A100000E0100070BD0800FCE7000010B50023D6
:101A2000437301338373037BC3730123027B9A42A5
:101A300014D9002B0CD0027B934209D85A00D2183B
:101A4000033A01688C4662440133DBB25370EDE720
:101A50000B4B0C4A68210C4800F0A8FB002A09D067
:101A6000924207D8016853009A18033A8A18002353
:101A7000537010BD024B034A6821034800F096FBE7
:101A80006C720010147400108872001010B501738D
:101A900042608360FFF7C2FF10BD000070B5040014
:101AA000002901D1080070BD002934D0037B994280
:101AB00031D84B005B18033B0268944663445A7864
:101AC000002AEFD02DD0037B9A422AD853009B18CE
:101AD000033B0068844663445D7800205870002909
:101AE00025D0237B994222D84B005B18033B20680A
:101AF00084466344002058702000FFF76FFF060003
:101B000029002000FFF7CAFF020031002000FFF784
:101B100065FF0100C6E7094B094A6821094800F042
:101B200045FB064B064A6821064800F03FFB034B85
:101B3000034A6821034800F039FBC0466C7200106C
:101B4000147400108872001070B505000C001600A7
:101B500000292FD034D0037B994231D84B005B1839
:101B6000033B0268944663445A78002A2ED19A783F
:101B7000002A31D11978FFF791FF0300002E0AD017
:101B8000EA7B002A2ED1AA7B002A03D1EA7B002A15
:101B90003BD1AC73EC73002B3DD1002C4FD02B7B91
:101BA0009C424CD82A6863001C19033C141900237A
:101BB000637070BD254B264A3821264800F0F6FA9E
:101BC000254B264A6821264800F0F0FA254B204A8A
:101BD0003A21204800F0EAFA234B1D4A3B211D48D8
:101BE00000F0E4FA002A0AD0297B8A4207D8510083
:101BF0008A18033A29688C4662445470C3E7164B2E
:101C0000164A6821164800F0D1FA184B104A4221B2
:101C1000104800F0CBFA002B0BD02A7B934208D857
:101C200043001B18033B2A689446634400229A70C1
:101C3000B3E7094B094A6821094800F0B7FA064B97
:101C4000064A6821064800F0B1FAC04680740010C8
:101C500034740010887400106C720010147400103A
:101C600088720010C0740010E87400100C7200102C
:101C700070B504000A00457B2900FFF765FF60731B
:101C8000280070BD10B50400002966D0437B8B424C
:101C90000ED0002911D0037B99420ED84B005B185F
:101CA000033B0268D0188378002B0CD1002055E04C
:101CB0000121FFF7DDFF012050E0294B294A68216F
:101CC000294800F073FA002B1FD0227B93421CD8C6
:101CD0005A00D318033B2268D21813788B421AD0CB
:101CE000002B1BD0227B934218D85A00D318033BF9
:101CF0002268D21853788B4216D0002BF0D11B4BA0
:101D00001B4A6B211B4800F051FA154B154A6821FC
:101D1000154800F04BFA4378137007E0104B114A56
:101D20006821114800F042FA437853700023837011
:101D3000437001222000FFF707FF0200617B814210
:101D400005D02000FFF74AFE6073012006E00A4B31
:101D5000074A7121074800F029FA002010BDC0464B
:101D60006C7200101474001088720010586E00100D
:101D7000487400108874001060740010F0B5DE46DE
:101D8000574680B583B007000E0092460A9A9342E8
:101D90004ED3190E01911B02180000930A9A0023DA
:101DA00001F0C8FB05007B00DB199C002E4B9C4614
:101DB00064446368834200D260603B1FDBB29B4691
:101DC000012B3BD9C0239B012343802212011A60BF
:101DD000BB00264A9958002907D0506901F06CFBD6
:101DE000431C5800C0180338FDD253465B012268DB
:101DF0005340E022134080225201224313605B468D
:101E0000012B26D980239B012343802212011A60D3
:101E100065602A0000230098019901F08BFBBF0048
:101E2000124BF850012003B00CBC92469B46F0BD0B
:101E30000F4B104A3321104800F0B8F9012EC1D1E0
:101E4000C0239B01234303221A60A368DB07FCD550
:101E5000CBE72168714003230B401360A368012284
:101E6000B2401A42FAD0CDE7008000406412002050
:101E70001C7500100C7500103075001030B583B063
:101E80000C2000F00BF9FEF717FB00280DD0002303
:101E9000092B05D899002D4A2D4888500133F7E7C2
:101EA0002A4B2C4A5A6203B030BD2B4B00229A6752
:101EB00000F062F9294B01221A60274B5B6C012B61
:101EC000FBD1274B03221A60234B9B6B012BFBD1C9
:101ED000013300930433234A0121234800F04EF8D4
:101EE00005230093214A0121214800F047F8214BA6
:101EF0000093002202210420FFF740FF1E4D0095B1
:101F00002B00002201210520FFF738FF104C009420
:101F10002300002200210720FFF730FF0094230058
:101F2000002200210820FFF729FF0A4B009323001D
:101F3000002200210920FFF721FF00952B0000223D
:101F400000210620FFF71AFFADE7C046641200200B
:101F5000006CDC021BB70000008000403CB0004079
:101F600030B00040002F685900800240008C864746
:101F700000C00240001BB70040597307F0B583B0A2
:101F800005000C0017001E00374801F095FA01907B
:101F9000364BFA18364B9A4239D80199380001F07D
:101FA0008BFA0200103A98235B009A4235D8731ED0
:101FB000062B38D8089B013B062B34D83A09019BE5
:101FC0009A4236D33304089A16031E432B68002B1B
:101FD00035DB284B9D4243D080214901264B1960B7
:101FE000264B1960264A92680B009343FAD12C6065
:101FF000A8602A1DC0239B01134321221A602A686E
:10200000002AFCDAEE6008221A6003B0F0BD1D4B16
:102010001D4A11211D4800F0C9F81D4B1A4A19210B
:102020001A4800F0C3F81B4B174A1C21174800F050
:10203000BDF8194B144A2321144800F0B7F82A6858
:102040003F231340A342C4D1AB681B051B0D834241
:10205000BFD1EB68EE22D2021340B342B9D1D4E72C
:1020600080218901BAE7C046001BB70080E84BD346
:1020700080F8A93200C0024000E0004000F00040BB
:1020800000C000408075001074750010E0750010ED
:102090001C760010387600108476001080239B0098
:1020A0000343014AD362704700800540024B1A681F
:1020B000024B5A607047C046001700200080054060
:1020C00010B5164B8022D2051A60154B154A1A60BE
:1020D00000290AD0144BE022D2041A60002809D14A
:1020E000114B802212061A6010BD0C4BE022D20464
:1020F0001A60F3E743011B1A9B00181803010B4AEF
:1021000013600B4A934201D9084B1A60FFF7CEFFC8
:10211000054B8022D2051A60E6E7C04600B00540B4
:1021200008200140FCFF010000A00540001700202E
:10213000FFFFFF0010B50C4B8024E4051C60002855
:102140000ED001230343094C0948E0610948584077
:1021500020626162A36200211000FFF7B1FF10BD91
:10216000024B0021D961F6E700B005400080054030
:10217000D3C007B02D3FF84F064BAA2212011A60B8
:102180002F22DA60044B054A1A60024B5B68002B71
:10219000FBDA7047004002400060024000B0FA00E5
:1021A00000BEFDE710B5FFF7FBFF000010B582B0E1
:1021B0000C001900002A0CD0084B002A0BD0019209
:1021C000009323000200064802F0C8F90120FFF73F
:1021D000E7FF044BF1E7034AF1E7C046A0760010A1
:1021E000B0760010AC76001070B52B4B2B4A1A60FD
:1021F0002B4B2C4A1A602C4B9A682A4B9343FAD1EA
:102200002A4C01E008CC9847294B9C42FAD3FFF7AF
:1022100035FE234B274A1A60234B9B68DB43DB01C7
:10222000FAD1254B40229A675A671A67DA66234C1F
:1022300009E0234B234A87212348FFF7B7FF2000FB
:10224000FEF71AFD0834214B9C4209D22368002B6B
:10225000F5D0012BEDD12000FEF71BFD0834F2E78D
:102260001B4CA1681B4DC022280002F021F8A5607C
:10227000EFF30583002B00D000BEFEF77FF9FEF7D9
:10228000D1FCFFF76FF8144C01E008CC9847134BD2
:102290009C42FAD370BDC04600E00040BFCDFBFEBB
:1022A00000F00040FE7F3C0000C00040880C002091
:1022B000980C0020FFFFFF0100F00140800C00207F
:1022C00004770010E076001024770010880C0020BE
:1022D00000ED00E000000020980C0020A00C002081
:1022E0000FB400B583B0084802F008F9049B002B36
:1022F00007D005A90191180002F010F9034802F077
:10230000FDF80120FFF74CFFF07600100077001079
:10231000704710B5002802D00B684968984710BD77
:1023200010B50400002321680A78303AD2B2092A95
:1023300008D89800C31858004B1C23600B781B1852
:10234000303BF0E7180010BDF0B5D6464F46464684
:10235000C0B582B005000091904601930A9B994652
:102360000B9C0C9E0D9B9B070CD04E460C9B9946DC
:10237000002C19D0013C571C305D019B0099A847E7
:102380003A00F5E72700A246B74207D2541C019B4A
:1023900000992020A84701372200F5E754460C9603
:1023A0004E460C9B9946E3E74E460D9B9B0706D491
:1023B000100002B01CBC90469946A246F0BD4746AC
:1023C000D31BB342F4D2541C019B00992020A84790
:1023D0002200F5E7F0B5CE4600B586B0049205932D
:1023E0000C9D0D9C0EAE33789946109F119B129E4A
:1023F000B2071BD4002B08D0F20706D54A46002AA4
:1024000002D10C32324200D0013BBC4208D21F2C18
:1024100006D830222A550134F7E730222A550134F4
:10242000F20703D59C4201D21F2CF6D9F20615D52E
:10243000720505D4002C03D0BC4223D09C4221D08D
:102440000F9A102A2AD00F9A102A2FD00F9A022AF8
:1024500034D01F2C02D830272F5501341F2C05D81B
:102460004A46002A30D02D272F5501340396029377
:1024700001940095059B049AFFF766FF06B004BC23
:102480009146F0BD671E002F06D00F9A102A01D08A
:102490003C00D5E7023CD3E73C00D1E7B206D2D4FA
:1024A0001F2CD0D878272F550134D2E7B206CDD5CE
:1024B0001F2CCBD858272F550134CAE71F2CC8D85A
:1024C00062272F550134C4E7720703D52B272F55F8
:1024D0000134CBE73207C9D520272F550134C5E792
:1024E000F0B5CE46474680B595B0089009910A925E
:1024F0000B931CAB10CB1B7898461E9D219B9946D5
:10250000002C03D110234A469A4391468027FF00AE
:102510004B461F4018D0002C22D0002714E04A461A
:1025200092061BD54121C918C9B20A39C9B27E1C0D
:102530000CABD9552900200000F0BEFFAC4210D3EF
:102540001F2E0ED8370004002900200000F0B4FF31
:10255000CBB2092BE3D83033D9B2E8E76121E2E707
:1025600026004B460693209B05931F9B04930395DF
:102570004346029301960CAB00930B9B0A9A099970
:102580000898FFF727FF15B00CBC90469946F0BDA0
:10259000F0B5DE46574680B597B00A900B910C9285
:1025A0000D931E9A08921F9C20AB1B789B46229B82
:1025B0000993239D269B9A462243131E03D1103371
:1025C00052469A4392468026F60053461E4006D055
:1025D000089A1300234333D0002637001AE037004F
:1025E00018E05246920621D54122D218D2B20A3AB8
:1025F000D2B27E1C0EABDA55099A2B000898210046
:1026000000F098FFA5421DD812D01F2E16D8370013
:1026100008900C00099A2B000898210000F08AFF0E
:10262000D3B2092BDDD83033DAB2E2E76122DCE73E
:10263000099B089A9342E8D9370004E0370002E08A
:10264000002700E0370053460693259B0593249B03
:102650000493099B03935B46029301970EAB00938F
:102660000D9B0C9A0B990A98FFF7B4FE17B00CBC9F
:1026700092469B46F0BD0000F0B5D6464F46464612
:10268000C0B594B00A9006910B9207931C9C0894D5
:102690001D9D099522002B002000290001F0D5F98D
:1026A000002800D0E8E001225242D64B2000290049
:1026B00001F0C6F9002800D0DEE001225242D24BE0
:1026C0002000290001F0A6F9002800D0D4E0002263
:1026D0000023089D2800099C210001F09BF9002897
:1026E00000D0DFE0089E099F8023DB00209A1A407B
:1026F0009046131E01D106331E930C960D973A0097
:10270000324300D1D5E0380D4005400DBF4A944614
:1027100060443A03120BBE4B13431D0001F0A8F9AD
:10272000BC4ABD4B01F033F9BC4ABD4B01F008F97E
:102730000C900D910022BB4B3000290001F0F7F8FE
:10274000B94ABA4B01F023F902000B000C980D991D
:1027500001F0F6F801F0A4F9824601F089F9B44AD3
:10276000B44B0C900D9101F012F90022B24B01F024
:10277000E7F801F095F90500B04AB14B0C980D99B6
:1027800001F005F90C900D91280001F071F9AD4AA6
:10279000AD4B01F0FCF802000B000C980D9901F014
:1027A000C6F802000B000E900F9101F0F0F81090A7
:1027B0001191A64B9C4665442B050D9300230C9369
:1027C0000E9C0F9D22002B002000290001F0B8F87C
:1027D0000E900F9122002B0000208021C90501F0EE
:1027E000A6F8129013910022994B109C119D200085
:1027F000290001F0AEF80022964B01F0A1F802008A
:102800000B002000290001F0A4F80022924B01F0F7
:1028100097F802000B002000290001F09AF802004E
:102820000B001298139901F08BF802000B000E9820
:102830000F9901F08EF80022754B01F081F80C9A87
:102840000D9B01F0A4F802000B000C920D933200D6
:102850003B0004000D0001F0F3F800282BD0012309
:102860005B429C46E24400227A4B2000290001F0A2
:1028700070F80C900D911EE0209B04931F9B039316
:102880001E9B0293089A099B00920193079B0B9A47
:1028900006990A9800F0F4F814B01CBC90469946CA
:1028A000A246F0BD2E0080231B069C4664442700F0
:1028B0001AE700239A4653466333C62B21D80425D2
:1028C000209B1B0529D50C9A0D9B1900114310D094
:1028D000624A634B3000390001F0AAF8002800D1A9
:1028E00082E000225F4B3000390001F093F80028AD
:1028F0007AD01E9B534506DD52469C1A631E1E93DA
:1029000003E00525DCE700231E938023DB00209AEB
:102910001A432092002500239A461F9B9D426DD2A8
:102920005B1B99460223209A1A40904603D0002D43
:1029300001D0002399465346002B07D00C9A0D9BDB
:102940003000390001F005F806000F0000220023D6
:102950000898099901F05EF8002800D086E0424B03
:10296000209A134004934B4603931E9B02930096B8
:102970000197079B0B9A06990A9800F081F8002DA1
:1029800000D189E7209B9B0675D54526471C079BF0
:102990000200069930000A9EB0475046C2178318BD
:1029A000534005220592013D0495002203920A320C
:1029B0000292C40F01940093079B3A0006993000DD
:1029C000FFF78EFD4346002B00D165E702000A9E0B
:1029D0000B9C1F9D131BAB424FD2571C079B0699A4
:1029E0002020B0473A00F5E71E9B002B95D04346C8
:1029F000002B92D01E9B013B1E938EE7002399462D
:102A000090E7C046FFFFEF7FFFFFEFFF01FCFFFFF6
:102A10000000F03FFB799F501344D33FB3C8608B55
:102A2000288AC63F0000F83F61436F63A787D23F03
:102A300071A379094F930A400000E03F1655B5BBDA
:102A4000B16B0240EF39FAFE422EE63FFF03000071
:102A500000002C4000002440000018402D431CEBD7
:102A6000E2361A3F80842E41FFF7FFFF80210906DE
:102A70007B181F0073E7652688E710000CE7C04647
:102A8000F0B5D646474680B597B0069007910892B4
:102A90000993209F1E9A1F9B1000190000F0D5FF7C
:102AA000002839D101225242BC4B1E981F9900F0D8
:102AB000B1FF00283FD101225242B94B1E981F9905
:102AC00000F0BEFF002845D10022B64B1E981F998A
:102AD00000F0B6FF002856D10022B34B1E981F9974
:102AE00000F098FF00284ED1002200231E981F9965
:102AF00000F090FF002856D100239A46229B5B05E8
:102B00005CD500261F2E5BD8092F59D90EAB302279
:102B10009A55013F0136F5E7229B0393219B0293CF
:102B200003230193A14B0093099B089A07990698E8
:102B3000FFF70AFC03E1229B0393219B02930423EA
:102B400001939B4B0093099B089A07990698FFF7FE
:102B5000FBFBF4E00423229A134010D0954A002B8B
:102B60000FD004232299039121990291019300929D
:102B7000099B089A07990698FFF7E6FBDFE08E4A63
:102B8000EDE70323EEE7229B0493219B0393029737
:102B90001E9B1F9C00930194099B089A0799069815
:102BA000FFF76AFDCBE01E9A1F9B0020002100F07A
:102BB000BEFE1E901F9101239A469FE70627A0E7BD
:102BC0001E981F9900F06CFF040000F051FF0200F6
:102BD0000B001E981F9900F0AAFEFA00774B9B1875
:102BE0001A685B680C920D9300F0D1FE0A900B916D
:102BF00000F07AFF050000F037FF02000B000A9892
:102C00000B9900F094FE0A900B9100226C4B00F09F
:102C100017FF00282CD00135280000F025FF020006
:102C20000B000C980D9900F0FBFE002801D0013438
:102C30000025002F2AD1200000F01AFF02000B000F
:102C40001E981F9900F073FE00225D4B0A900B91B5
:102C500000F0E0FE002844D10022594B0A980B995D
:102C600000F0EEFE00283CD1E3073AD5013438E00D
:102C70000022534B0A980B9900F0CCFE0028D8D1C3
:102C8000002D01D0EB07D4D50135D2E70A941F2ED1
:102C900011D8013F0A21280000F00EFC741C3031CD
:102CA0000EAB99550A21280000F006FC092D0ED91B
:102CB00005002600EBE70A9C1F2E0CD87B1E002F78
:102CC00009D00EAA302191551F000136F4E7A04625
:102CD0000A9C4646F0E71F2E03D80EAB2E229A55CB
:102CE00001361F2E10D80A21200000F0BDFB751CF4
:102CF00030310EAB99550A21200000F0B5FB041EBF
:102D000001D02E00EDE72E000323229A1340012B61
:102D10001AD01F2E06D85346002B2FD00EAB2D22D3
:102D20009A550136229B0393219B029301960EAB89
:102D30000093099B089A07990698FFF705FB17B0BF
:102D40000CBC90469A46F0BD219B002B0AD05346FE
:102D5000002B02D10C3313420ED0219B013B219357
:102D6000190000E021998E42D3D21F2ED1D80EAB8C
:102D700030229A550136F6E72199F4E7229B5B074A
:102D800004D50EAB2B229A550136CBE7229B1B07AD
:102D9000C8D50EAB20229A550136C3E7FFFFEFFFDF
:102DA000FFFFEF7F65CDCD4165CDCDC150790010DE
:102DB00054790010487900104479001060790010AF
:102DC0000000E03FF0B5DE4657464E464546E0B5CA
:102DD00093B083460B910A921193002900D1E6E249
:102DE00000275C46119B1878002800D1E2E22528D4
:102DF00009D07D1C0A9B3A000B99A047119B013317
:102E000011932F00EEE70133119300261DE00B0014
:102E1000303BDBB2092B37D92A293AD000239B4615
:102E2000119B1A782E2A44D000239846119A1378C1
:102E3000683BD9B2122900D980E08B00CB49CB582E
:102E40009F4601231E4301321192119A11780B0003
:102E5000203BD8B21028DAD88300C548C3589F4613
:102E600002231E4301321192EFE704231E43013275
:102E70001192EAE708231E4301321192E5E710237D
:102E80001E4301321192E0E711A8FFF749FA834689
:102E9000C6E71C9B1A1D1C921B68002B04DB9B467B
:102EA000119B01331193BBE7022216435B429B4601
:102EB000F6E78022D20016435A1C11925A7813006A
:102EC000303BDBB2092B04D92A2A07D000239846CD
:102ED000ACE711A8FFF724FA8046A7E71C9B1A1D50
:102EE0001C921B68002B04DB9846119B0133119345
:102EF0009CE70023F8E780235B003343511C1191CA
:102F000052786C2A01D01E0018E0C0239B001E439B
:102F10000131119112E080233343511C11915278F9
:102F2000682A01D01E0009E0C0231E43013111911F
:102F300004E080235B001E4301321192119B18783C
:102F40000300253BDAB2532A00D926E29300894ACE
:102F5000D3589F4680239B001E4301321192EDE718
:102F600080235B001E4301321192E7E7782809D0E5
:102F7000582838D06F2838D0622838D010239E4384
:102F80000A2500E01025582833D0692803D064288A
:102F900001D00C229643730501D50122964369287E
:102FA0002AD0642828D0B30500D59FE0F30500D5CA
:102FB000B8E0730600D4CAE01C9A111D1C91116878
:102FC000FF220A4005965B4604934346039302950D
:102FD0000023019300920A9B3A000B992000FFF70F
:102FE0007FFA070027E01025CDE70825CBE702256B
:102FF000C9E720221643C8E7B30520D4F30550D40F
:10300000730666D51C9A111D1C911168FF220A4097
:10301000D317D118594005965B4604934346039352
:103020000295D20F019200910A9B3A000B99200061
:10303000FFF756FA0700119B01331193D2E61C9B50
:10304000DA1D07218A43110008311C911168536869
:103050009C46DB170C930D930C9A0D9B1000484077
:103060000E90624653400F930E980F990C9A0D9B49
:10307000801A99410E900F9108965B46079343463C
:1030800006930495002305936346DA0F029200909D
:1030900001910A9B3A000B992000FFF779FA07008B
:1030A000C9E71C9A111D1C911268D317D1185940F9
:1030B00005965B460493434603930295D20F019213
:1030C00000910A9B3A000B992000FFF709FA0700CC
:1030D000B1E7330605D51C9A111D1C910023D25E61
:1030E00096E71C9A111D1C91126891E71C9BDA1D32
:1030F00007218A43110008311C9108965B4607930B
:10310000434606930495002305930293536812687F
:10311000009201930A9B3A000B992000FFF738FABE
:10312000070088E71C9A111D1C9105965B460493C5
:1031300043460393029500230193136800930A9B6F
:103140003A000B992000FFF7CBF9070073E733062D
:1031500006D51C9A111D1C9112681204120C31E73D
:103160001C9A111D1C9112682CE7C0466477001050
:10317000B0770010F477001046281AD01C9B073354
:10318000072293431A0008321C9204965A4603926F
:10319000424602921A685B68009201930A9B3A00C9
:1031A0000B992000FFF76CFC0700119B0133119372
:1031B00018E620231E43E1E7672801D0472802D103
:1031C00080231B011E43452801D0472801D120231D
:1031D0001E431C9B0733072293431A0008321C929C
:1031E00004965A460392424602921A685B6800921D
:1031F00001930A9B3A000B992000FFF73DFA070064
:10320000119B01331193EDE5022333409A461ED002
:1032100001261C9B1A1D1C927D1C18780A9B3A00E3
:103220000B99A0475346002B15D1119B01331193E5
:103230002F00D7E5551C0A9B0B992020A04733008F
:103240002A005E1C9F42F5D8BB461700E1E7012328
:103250003A005F46F5E72A00A0465C4606E0571CA8
:103260000A9B0B992020C0472E003A00751CB442DF
:10327000F5D815004446D8E71C9B1A1D1C921B6804
:103280009A464346002B00D1013B55462A78002A36
:1032900005D05A1E002B02D001351300F6E7534625
:1032A000ED1A8023DB003340994602D0454500D912
:1032B000454602233340109308D03A005646290071
:1032C0004D4623004446984689461FE03A002300B5
:1032D0005C469B4606E0571C0A9B0B992020D8476A
:1032E00035003A006E1CAC42F5D835005B46A3466B
:1032F000564629004D4644469846894606E01C003D
:103300000136571C0A9B0B99C0473A0030780028B9
:1033100004D0002DF4D0631E002CF0D117004D46D0
:103320004446109B002B03D1119B0133119359E5A7
:103330005C4606E0571C0A9B0B992020C0473500CD
:103340003A006E1CAC42F5D817004446ECE7212346
:1033500033431C9A111D1C91126800920593082397
:1033600004934346039310230293002301930A9B83
:103370003A000B992000FFF7B3F80700119B0133C7
:1033800011932FE57D1C0A9B3A000B992520A0473D
:10339000119B013311932F0024E57D1C0A9B3A00F9
:1033A0000B99A047119B013311932F001AE50B4B8A
:1033B0009B4615E5A3460A9B9F420CD35A1E0A9BC7
:1033C0000B990020D847380013B03CBC9046994672
:1033D000A246AB46F0BD3A00F1E7C046112300100B
:1033E00000B585B0029003910121009313004A4279
:1033F00002A90248FFF7E6FC05B000BD1323001048
:1034000001480421014B1847200C002031340010E2
:1034100010B5010018231B8814221088984710BD8E
:1034200010B5010018231B8816221088984710BD7C
:10343000F0B5C64600B507000E00002501239846EA
:1034400000E00135B5420AD2AC003C192068FFF714
:10345000DFFF20600028F4D100239846F1E74046C2
:1034600004BC9046F0BD0000124A936F9B0815D231
:103470009066D166002905D0FFE7FFE7FFE7516FAF
:10348000106F704704B580210906C217514000280B
:1034900000D0C84303F0ACFB002104BDF0B5146EAE
:1034A000556E576F166FFFF7E3FF14665566576743
:1034B0001667F0BD000000D0114A936F9B0813D22D
:1034C00010665166002905D0FFE7FFE7FFE7516F5F
:1034D000106F704704B5002801D00020C04303F0EE
:1034E00087FB002104BDC046F0B5146E556E576FC2
:1034F000166FFFF7E5FF1466556657671667F0BD50
:10350000000000D094464A4A926F9208624601D267
:1035100028E0C046F0B5464E346E756E776F366F54
:1035200000F020F89446424A1466556657671667BD
:103530006246F0BD94463E4A926F9208624601D2BE
:1035400054E0C046F0B53A4E346E756E776F366F04
:1035500000F04CF89446364A14665566576716676D
:103560006246F0BD002B24DB11D000293EDA00B505
:10357000C943404200D1013100F038F8C94340420C
:1035800000D10131DB43524200D1013300BD002A9A
:10359000EBD1002801D1002905D00020C90FC907AF
:1035A00001D1C043410800B503F012FB0022002303
:1035B00000BD00B500290ADBDB43524200D10133D4
:1035C00000F014F8C943404200D1013100BDC943A5
:1035D000404200D10131DB43524200D1013300F0BF
:1035E00005F8DB43524200D1013300BD002923D14D
:1035F000002B18D1002A0CD0BC460D4F38667A66D5
:1036000000210023FFE7FFE7FFE77A6F386F674687
:103610007047002801D00748010000B503F0D8FA30
:103620000022002300BD02000B0000200021704793
:10363000000000D0FFFFFFFF002B00D0BFE0130C05
:1036400028D1002AE7D080B4114F39667A66FFE7A7
:10365000FFE730B4040C7B6F396F1B0423433B66D8
:103660007A66FFE7FFE7FFE7C04684B27B6F3D6FF6
:103670001B0423433B667A66FFE7FFE7C04600234F
:103680002C042D0C7A6F386F00196941B0BC70475B
:10369000000000D0F0B594460025140E01D11202AE
:1036A0000835140F01D112010435940F01D1920095
:1036B0000235D40F01D152000135D40B0134254F0E
:1036C0007C66254C3C660E0C93B2FFE7FFE7FFE7F4
:1036D0003C6F6643360C7703BE467343DF0B5B04D7
:1036E000C01AB941130C7343DB18C91ACE086643DC
:1036F000360CB64493B273431F0F1B01C01AB94175
:10370000130C73431F0B1B05C01AB941860D8F02A2
:103710003E436643360C092D24DB520A7243801A5D
:103720007703460A6643360C16235B1BDE40DF40F8
:10373000BF1964466643821B704604350633010098
:10374000D940A840C01900D30131A24206D20023BB
:10375000F0BD0000000000D0FFFFFFFF121B013092
:10376000F3D3F1E709277F1BFE406446A2B2724300
:10377000801A00D20139220C7243130C1204821AEF
:1037800099410B007046043513370100F940A840F9
:10379000801900D30131002B02D1A2420AD2F0BD20
:1037A000013000D30131121BFAD2013BF8D1A24201
:1037B00000D2F0BD013000D30131121BF7E7F0B5A4
:1037C0001C0C00D080E00CB400251C0A04D11B02A4
:1037D000160E3343120208351C0B04D11B01160FC1
:1037E0003343120104359C0B04D19B00960F3343E5
:1037F00092000235DC0B02D192185B4101351C00AE
:10380000971864410134464F7C66464C3C660E0C6A
:10381000FFE7FFE7FFE7C0463C6F6643360C7703E0
:10382000BE4697B27743C01B00D20139C01B00D2FD
:1038300001399FB27743C91BC91B170C77437E041C
:10384000FF0B801BB941CE086643360C0C2D33DBD1
:10385000B644120B1F053A431B0B97B27743C01BAC
:1038600000D201399FB27743C91B170C77433E043E
:103870003F0C801BB941860D8F023E4366432927CA
:103880007F1BFE400C3D7746AF40BF1930BCA2B253
:10389000ABB272437343801A9941220C7243130CEA
:1038A0001204801A994102000B000137001BA94144
:1038B000F9D2781E0021F0BD0C277F1BFE40774611
:1038C0007F0BAF40FF19E0E700245D1C07D0144FC9
:1038D0007D663966FFE7FFE7FFE7FFE73C6F95B2DC
:1038E0009EB265436643401BB141150C1E0C6543F7
:1038F000664336042F0C3E432D04401BB1419942D0
:1039000004D202000B0020000021F0BD01D1904242
:10391000F7D3801A994101349942F2D3F6E70000B7
:10392000000000D0FFFFFFFF48404140484018B46E
:103930001B4B5B68FC46019308BD04DF033C001091
:1039400018B4174B1B68FC46019308BD00DF0D3C03
:1039500000109446134A926F920809D2624618B436
:103960000F4BDB68FC46019308BD0CDFC53E001021
:103970000C4AF0B5146E556E576F166F6246FFF71E
:10398000EEFF084A1466556657671667F0BD18B40F
:10399000034B9B68FC46019308BD08DF693D00109E
:1039A00064170020000000D0FFB550404240504056
:1039B00059404B40594000E0FFB5154F4C00640D95
:1039C00003D0BC4204D10C0314D80020090D090512
:1039D0005C00640D03D0BC4204D11C030AD8002251
:1039E0001B0D1B0501264B4009D44B4003D58B42D0
:1039F00000D18242FFBD9942FCD19042FFBD0B43F2
:103A0000DB1803431343F5D0C9434918FFBD000039
:103A1000FF07000000B5FFF7CFFF804100BDC046A3
:103A200000B5FFF7C9FF01D9002000BD012000BD8E
:103A300000B5FFF7B9FF01D9002000BD012000BD8E
:103A400000B5FFF7B1FF804100BD012040054A00ED
:103A5000121804D85A00121801D80020704701200B
:103A600070470020704700000021002805D17047F2
:103A7000C1174840401AFAD0C90713B5064B1B6856
:103A800098470CBC441CA2401005120B0349091BAB
:103A900009051943114310BD281700201F04000019
:103AA00010B54C00620D8023D218DB00D21A5B05E2
:103AB0007E2A10DD9E3A13DACC1709034908194310
:103AC0005242D140640001341532202A05DAD04038
:103AD0000843604310BD002010BD0846604310BD80
:103AE000C80FC018013810BD18B4044B5B6AFC46FF
:103AF000019308BD24DF754000100000641700200A
:103B000070B513231C78012C0CD0012C13DC022C73
:103B100002DC1F4A1F4B9A641F48FFF779FC1F4BBA
:103B2000186070BD00231F2BEFD899001848194A60
:103B300088500133F7E71A48FFF772FC050019486F
:103B4000FFF76EFC023803789B007F2B19DD802283
:103B50002900104800F0ACFB022CD8D1124B1A8877
:103B6000B5231B029A4209D1104B1A88104B9A4276
:103B700004D1104B1A88104B9A42C8D00020FEF78F
:103B8000AFFB0E4B0E4A32210E48FEF70FFBC0462C
:103B9000C93B0010641700204C3300002817002098
:103BA000534400005346000054380000D838000049
:103BB000494600009C38000059460000B0790010CA
:103BC0004C7A0010047A001007B56046002800D136
:103BD00000BE01880A0A0230DF2AFAD1C9B282087F
:103BE00004D3028840880004104300E00068024AC1
:103BF0005050039007BD0000641700200FB403BCB1
:103C00000CBCF0B50124E407634000E0F0B50C0DF6
:103C1000CF0F661E3605891B640503D3C943404296
:103C200000D30131640D03D0661CF60A07D0E41BF3
:103C300000207F00791C89078912803C24031D0D18
:103C4000DF0F6E1E36059B1B6D0503D3DB4352420F
:103C500000D301336D0D03D06E1CF60A07D0ED1BA7
:103C600000227F007B1C9B079B12803D2D032F1B96
:103C7000661B58D4A446202E46DA20371400BC40D8
:103C80001D00BD40F24033412A4380185941CB0FFB
:103C900005D0C943C04300226442504151416246AD
:103CA0004D0D28D10D0D07D100281FD024194041FA
:103CB0004941013A0D0DF9D0640006D3013000D31B
:103CC0000131002C01D140084000013A0BD4941C72
:103CD000E40A04D112051144DB071944F0BDD907E9
:103CE000204B194300E0D9070020F0BD0029DDD1A9
:103CF000002CDBD1F0BD0132C6074008CD072843B8
:103D00004908002EE1D0D9E73C2E29DA203E403781
:103D10001400BC4000D00124F24014431A00BB4000
:103D20001C43D317ACE7AC46202F08DA203604003A
:103D3000B4400D00B540F84039412843A5E73C2F79
:103D40000CDA203F40360400B44000D00124F84093
:103D500004430800B1400C43C117EAE71000190002
:103D6000002494E70000F07FF0B50C0D661E3605C8
:103D7000891BE60A6405640D02D0651CED0A04D0B7
:103D8000002001210905803C2403A4461C0D671E68
:103D90003F05DB1BE70A6405640D02D0651CED0AD4
:103DA00004D0002201231B05803C24037740644497
:103DB00097B484B296B27443070C7E43150C6F43DC
:103DC00080B26843361802D3012000043F18300443
:103DD000350C00197D41844688B29AB250430C0CD0
:103DE00062431F0C7C438EB27E43921902D301269C
:103DF0003604A4191604170C3618674101BC81B2A9
:103E00009AB25143040C62431B0C5C4380B258438A
:103E1000121802D30120000424181004130C4018B7
:103E200063412D185E410020474106BC88B293B221
:103E300058430C0C6343120C544389B251435B1832
:103E400002D301210904641819041A0C09186241EB
:103E50006D1856410020474118BCF902720D1143FC
:103E6000F0026A0D1043ED020A0D03D16D194041B5
:103E70004941013B124E9B1B7600B3420ED26D00AE
:103E800007D30130002671416646354301D1400811
:103E900040001B05C918E4072144F0BD0BDA0133CB
:103EA00006D1013004D101314F0D01D04908F2E7AC
:103EB000E1070020F0BD013631050020EBE70000EE
:103EC000FF030000F0B51C0D671E3F05DB1BE70A72
:103ED0006405640D02D0661CF60A04D0002201239A
:103EE0001B05803C2403D0252D060026F6432E66B4
:103EF0001E096E66CE0FF619B44649004F0D02D06A
:103F00007E1CF60A03D000200021403F3F033E1BE9
:103F1000B600B444013F7F05C91B49082E6F013626
:103F200076089C02950D25437543ED137543AD133B
:103F300001356D10F603761B0CB4CC02450D2C43F5
:103F4000A2B2B3B25A43270C7B43350C6F43A4B2E1
:103F50006C431B1902D3012424043F191C041D0CBB
:103F6000A4187D4124196D41009A91B2ACB261430D
:103F7000170C7C432B0C5F4392B25A43A41802D314
:103F800001221204BF182204230C52187B41019C09
:103F90006C431B19520ED9010A434401A01A81B285
:103FA000B2B2514303145A43360C734387B277437A
:103FB000D617D21900277E4136049B191704160C18
:103FC0007F185E417316ED18F301002680337541AA
:103FD000A90F06D16400690AE8055B0A184309D2F3
:103FE0002FE00422944480337541A90AA8059B0A56
:103FF000184326D3404149412404009A019B0D00F7
:104000005543641B4343E41A95B286B27543170CBB
:104010007E43030C5F4392B25A43B61802D3012287
:104020001204BF183204330C52197B4152429C4196
:10403000002C02D40022013051414008CA0710432D
:10404000490802B06246D7079210084BD218084BB5
:104050009A4203D212058918C919F0BD0020002A1E
:1040600001DC3900F0BD01331905F5E7FD0300005F
:10407000FE070000002200B5203200F004F808001E
:1040800000BD000000220B150AD410B5944600F0C4
:1040900031F81414013400DA0021CB17144C2047F6
:1040A0000020002170476244343A0CD40C2A07DA0D
:1040B00004009140904052422032D440214310BD30
:1040C000D843D94310BD203207D40C469440524205
:1040D00020321141D040204310BD0800C9172032C2
:1040E00003D452422032104110BD1800190010BDF7
:1040F000A74000100A0DCC0F531E1B05C91A52050C
:1041000003D3C943404200D30131520D03D0531CA5
:10411000DB0A07D0121B00206400611C890789128A
:10412000803A1203014BD21A70470000FF030000CF
:1041300051434343C9188C46110C83B24B4310B40E
:10414000040C614392B280B2504362431C041B0CC6
:10415000001910BC59411304120CC018514161449C
:104160007047000070B513231D782A48FFF758F9EF
:104170000400012D11D0012D09DDA31E1B789B0029
:104180007F2B40DD80222100234800F091F8234856
:10419000FFF73EF9224B186070BD542201001E4803
:1041A00000F086F81F4B1A881F4B9A421CD1A72398
:1041B0009B011A881D4B9A4216D11D4B1A881D4B24
:1041C0009A4211D11C4B1A8894239B019A420BD11D
:1041D0001A4B1A881A4B9A4206D11A4B1A681A4B74
:1041E0009A4201D1152307E01848FEF779F89900A3
:1041F0001748094A885001331F2BF8D9144A064B37
:104200001A62DA61B7E7134B134A42211348FDF7EC
:10421000CDFFC04653460000641800204C33000018
:1042200028170020EE290000C40F0000C20D000076
:10423000962B0000C0B50000182B0000CC2A00000F
:1042400010B50000FC2C000051ED8764AC76001026
:1042500061420010607A0010D87A0010947A001041
:1042600007B56046002800D100BE01880A0A023066
:10427000DF2AFAD1C9B2820804D302884088000438
:10428000104300E00068024A5050039007BD000050
:104290006418002001480421014B1847300C00200D
:1042A00031340010014B1B6818470000300C00200F
:1042B000014B5B6818470000300C002010B50C0063
:1042C000036811002000984710BD0000F8B50700F2
:1042D0000D001600437D002B02D0002400200CE0CE
:1042E00003681100280098472DE03B7D10E0022173
:1042F00015483B689847601C0134B44214DA002C1E
:10430000F3DD2B19013B1B780D3B5A425341DBB2C5
:104310002A5D0A2AF0D1002BEED1A042E7DA211A59
:1043200028183B689847E2E7B04203DA311A2818A8
:104330003B689847002E06DDAD19013D2B780D3BFB
:104340005A4253413B75F8BD787B001070B50500AB
:104350000368002B16D00C4B1C6805E0290004C92B
:104360002000FFF7B3FF2469002C09D02368002B3D
:10437000F9D0064B1B68002BF0D0A342F3D1EDE738
:1043800000232B6070BDC046F4120020FC120020F8
:1043900070B505000C000B68802B05D023685A1CF3
:1043A0002260E418257170BD0800FFF7CFFFF5E724
:1043B00010B5FDF7D9F900290BDB0E4A00231218BE
:1043C0004B41002B0BDB002B0DDB0B4802F030FCCC
:1043D00010BD0A4B0A4A3F210A48FDF7E7FE0122B9
:1043E0005242094BEFE7054B054A3F210548FDF7CF
:1043F000DDFEC04640420F00800C0020EC6F001034
:10440000607B001008700010FFFFFF7F10B50248AE
:1044100002F0D6FB10BDC046800C0020F0B5C646A9
:1044200000B584B001900D0016001C00FFF7C0FF1E
:1044300080466B1C05D0002C08D0194F194B1C6806
:1044400007E0019802F06EFB0500F4E7164FF5E770
:104450002469002C16D02368002BF9D0134B1B685D
:10446000002B01D0A342F3D12A0001992000B847C4
:10447000002EEDD002ABD91D0A230B7001222000C3
:10448000B847E5E74346002B06D1681E8541E8B2F0
:1044900004B004BC9046F0BDFFF7B8FFF5E7C04696
:1044A000BD420010F4120020CD420010FC1200208A
:1044B000094A1368002B0BD0834202D010331A0034
:1044C000F7E7002907D1036913600023036102E0C5
:1044D000002900D010607047F412002010B5064B80
:1044E0001C6800E02469002C04D06368002BF9D01C
:1044F0009847F7E710BDC046F412002070B50500DC
:1045000002F010FB04000023012201002800FFF745
:1045100085FFFFF7E3FF200070BD000070B5A2B07B
:1045200004000E00FFF744FF050000230193330051
:10453000220001A90848FEF753FF040001A8FFF775
:1045400005FFFFF7CBFF002D02D1200022B070BD88
:10455000FFF75CFFF9E7C046914300100FB400B5C8
:1045600083B004A901C90191FFF7D8FF03B008BCCB
:1045700004B0184710B500F033F910BD70470000C3
:10458000014B00221A7070475E1700204B79FF2BF9
:104590000CD18B79002B0BD1CB79012B0AD1082AB6
:1045A0000AD98A78054B1A70092000E0002070476C
:1045B0000020FCE70020FAE70020F8E75E17002063
:1045C0000120704770B501292BD1117953791B0255
:1045D0000B43154909788B4201D0002022E0537823
:1045E000012B03D0022B15D000201BE09178D3784B
:1045F0001B020B43DA050BD55A0A012595407F248F
:104600001C400A48FEF704FF0300210028009847D9
:104610000025F4E7642200210020FDF78BFD012036
:1046200000E0012070BDC0465E170020554200002A
:1046300001230370004870477C7B001010B50B7895
:104640004A7812021A438B781B041A43CB781B0654
:1046500013439622D200934200D010BD0348FEF7C8
:10466000D7FE0300002108009847C04655420000CD
:10467000024B1860024B19607047C0465812002068
:104680005C12002070B5124B1B68002B1BD0EFF39F
:10469000108272B619680029FCD0BFF35F8F0C49F5
:1046A0004A6000230B4803700968BFF35F8F0B60FB
:1046B00082F3108800240025074B1878FCF708F8CF
:1046C0002000290070BDFA24A4000025F4E7C046AC
:1046D00008170020601700205F17002010B5024B5C
:1046E0001878FBF7F5FF10BD5F17002010B584B0F8
:1046F00000212B4802F084FA002836D1294B1B6890
:10470000002B3AD0EFF3108272B619680029FCD062
:10471000BFF35F8F23494A60234803780124634035
:10472000012404700968BFF35F8F0020086082F3E2
:104730001088002B21D0FCF735FE0400FDF714F89B
:1047400000291CDBFA229200002312184B41002B97
:104750001BDB002B1DDB012102910021019113497C
:1047600000912000FCF734FE07E0012000214042C8
:1047700001F0EAF80A4802F023FA04B010BD0C4B2D
:104780000C4A3F210C48FDF711FD012252420B4B10
:10479000DFE7074B074A3F210748FDF707FDC04603
:1047A00030170020081700206017002085460010F1
:1047B000EC6F0010A07B001008700010FFFFFF7F5F
:1047C00010B5054B1868002804D0044B1968002266
:1047D00000F0E6FD10BDC046581200205C1200201B
:1047E00010B584B0D0231B061C68FCF7DBFDFCF77A
:1047F0000FFFA0422AD1324B1B7801F085FD3148D2
:10480000FCF73AFA0120FCF71BFAC0B22E4C2070DC
:104810002E49FBF77FFF20780121FBF751FF052090
:10482000FBF766FF041E17D0002229490520FBF77D
:104830009BFFFBF7B3FE01002648FCF739FA012184
:104840002548FFF735FE200004B010BD234B244A55
:10485000B2212448FDF7AAFCFCF7A4FD0400FCF7F4
:1048600083FF00291BDBFA229200002312184B4120
:10487000002B1ADB002B1CDB01210291002101918E
:10488000194900912000FCF7A3FDC443E40F08225E
:1048900000211048FFF706FD002CD4D0CFE7134BC2
:1048A000134A3F211348FDF781FC01225242124B6B
:1048B000E0E70E4B0E4A3F210E48FDF777FCC0465D
:1048C00094810010301700205F170020ED46001083
:1048D000DD46001008170020400C0020946E0010E8
:1048E000B87B0010C87B001085460010EC6F0010EC
:1048F000A07B001008700010FFFFFF7F10B50020A4
:1049000001F026FA10BD000070B505000C00FFF79D
:10491000F5FF002844D0002001F03CFA002842D0E6
:10492000FCF722FF002921DB224A002312184B4109
:10493000002B21DB002B23DB1F4802F079F9002834
:1049400034D0FFF7DBFF002804D0002001F022FA6A
:1049500000281BD101200021404200F0F5FF032474
:104960006442154802F02CF9200070BD134B144A24
:104970003F211448FDF71AFC01225242124BD9E79D
:104980000E4B0F4A3F210F48FDF710FC2200290073
:10499000002001F00BFA041EE3D103246442E0E797
:1049A00003246442E0E703246442DDE70324644215
:1049B000DAE7C04640420F0030170020EC6F0010CD
:1049C000A07B001008700010FFFFFF7FF0B5C64607
:1049D00000B580460C00FCF7C7FE00290FDB384A03
:1049E000002312184B41002B0FDB002B11DB354845
:1049F00002F01EF9002812D104BC9046F0BD324BE3
:104A0000324A3F213248FDF7D1FB01225242314B5D
:104A1000EBE72D4B2D4A3F212D48FDF7C7FBFFF754
:104A20006DFF002849D12C4B0020002118605960EF
:104A3000244802F0C5F8DFE701200021404200F0E1
:104A400083FF002001F0C6F9FFF758FF0028EFD0E0
:104A5000002001F037FA002820D0A542E8DA661BD2
:104A6000002001F02FFA864200DC30000028E3D05D
:104A7000434659190200002001F008FA06000120FF
:104A80000021404200F060FF002001F0A3F9AD19C1
:104A9000FCF76AFE104B18605960DEE7FCF764FE15
:104AA0000D4B1E685F680D4A002392197B419942A5
:104AB000BED8D2D19042D0D9BAE70025CDE7C046C2
:104AC00040420F0030170020EC6F0010A07B001058
:104AD00008700010FFFFFF7FA00D002020A107003D
:104AE00000487047A07C0010004870474C7C0010C4
:104AF00010B50400154B1B78002B0DD0002C10D1E5
:104B0000134B144A5A80012301335B00C0229200E8
:104B100013430F48038010BD11210C4800F026F804
:104B2000ECE7052C0FD8A4000B4BE458002304E05D
:104B30000133590006484252DBB2122BE4D8E25C42
:104B4000002AF5D1E0E70020E5E7C046481700203D
:104B5000CC12002009040000B47C001010B50248FB
:104B600000F034F810BDC0462017002010B5002911
:104B700001D000230AE0114B114A1F311148FDF703
:104B800015FB00240DE03732C25401334A1E9A420D
:104B90000FD90F2B0DD85A080B4CA25CDC07F0D4B0
:104BA0000424224114000F222240092AEBDC303277
:104BB000EAE7C0180023037010BDC046EC7C00106B
:104BC000CC7C0010F47C00102017002030B589B098
:104BD000040004AD0D2200212800FFF763FB0D2225
:104BE00000216846FFF75EFB4B232B700D226946C0
:104BF000280001F0DDFF002304E05A1D69468A5CAD
:104C0000E2540133072BF8DD09B030BD7F230340A8
:104C1000C209580080184001014BC0187047C046B7
:104C20000013002010B5038B3F333F22934302292A
:104C300015D0124C2268C260D31823609C0610D194
:104C40000F4C6240634080246401A3420FD8890660
:104C5000114380231B0619434368196010BD5B0094
:104C6000E7E7084B084A54210848FDF79FFA084B2C
:104C7000054A56210548FDF799FAC0460417002059
:104C800000001050007F0010A07E0010307F001048
:104C9000847F0010F8B505000E001400FFF7B6FF82
:104CA0007F232B40EF0985707A427A4142700022BF
:104CB000C2700683C476012F0DD0DA0012498C46EB
:104CC00062448260826800211160002B09D1436038
:104CD0000E4BC360F8BDDA000D498C466244826019
:104CE000F0E7012F09D0013BDB000A4A94466344F8
:104CF00043602100FFF796FFECE7013BDB00064A2B
:104D0000944663444360F4E784001050000110505F
:104D1000800010500C0010500800105070B50C00AE
:104D20001500FFF773FF2A00210000F00DF970BD98
:104D300010B5002804D101210520FBF7C1FC10BDEE
:104D4000D521034B034A49000348FDF72FFAC0461B
:104D5000B87F0010C07E0010307F001010B5002812
:104D600005D1002200218020FFF7D8FF10BDDB21F4
:104D7000024B034A49000348FDF718FAB87F0010B8
:104D8000D07E0010307F0010024B80225202DA6485
:104D90007047C0460020115070B5051E26D100F0A6
:104DA000ADF8164C0C23A367FF2215490520FBF72D
:104DB000DBFC402200211348FFF774FA0022402157
:104DC0000020FFF767FF002240218020FFF762FFED
:104DD00001F0DEFE0123236480239B05E36490231E
:104DE000094AE2502800FFF7CFFF70BD8621074B2C
:104DF000074AFF310748FDF7D9F9C04600001150B6
:104E00009D0400200013002010D00100B87F001086
:104E1000B47E0010307F00100B785B0602D14B7817
:104E2000052B00D070478A78014B1A60FAE7C0461C
:104E30000000115010B50C0000280DD109796379DC
:104E40001B020B435B05590DE2789207920FA07885
:104E5000FFF720FF012010BDFC21034B034AFF3167
:104E60000348FDF7A3F9C046B87F0010E07E0010AC
:104E7000307F001010B501F08BFE10BD10B50C0096
:104E80001100002805D11A002000FFF747FF01207C
:104E900010BD034B034A04490448FDF787F9C04697
:104EA000B87F0010F07E00100A020000307F001072
:104EB00010B54B0605D1CB09012B0BD00222064BB6
:104EC0009A660800FFF7A2FE80221201002101F07D
:104ED000C7FE10BD0122F2E70020115010B54B06AD
:104EE00000D110BD0800FFF791FE0023C37000221F
:104EF000014901F0B5FEF4E7FFF7FFFF10B580238D
:104F00005B040C4A13600C4A13600C4B9A688023B4
:104F10005B049343F9D10A4C9C2200212000FFF747
:104F2000C1F98022520100210648FFF7BBF909238D
:104F3000636710BD00E0004000F0004000C000408A
:104F4000000011500000105070B504000D00160054
:104F5000837E002B17D1A6820023E3820133A37640
:104F60002561200001F01CFE002804D0094A90238E
:104F700080218902D150200001F032FE002805D0A6
:104F80000123237770BD01F063FEE4E7200001F008
:104F900057FEF7E70020115070B5040000250CE023
:104FA0006A005219D100184B1B685B18002B2AD0DD
:104FB0005B68200098470135EDB2144B1B78AB427B
:104FC00010D3134A002A0BD0AB42E9D8EB1ADBB25C
:104FD000002B18D15A00D318DA000E4B9B18E5E7C6
:104FE0002B00F5E70C4C532200212000FFF75AF963
:104FF000E01C1022FF21FFF755F92000133020227A
:10500000FF21FFF74FF970BDC40D00205917002094
:10501000314600105C810010EC10002010B5FFF745
:10502000BBFF00F0EBFD10BD70B505000C001600D5
:10503000C86800F0EDFDE3683200012128009847C0
:1050400070BD0000F0B5DE4657464E464546E0B519
:1050500083B001900139C8B2FFF746FD002800D1A6
:1050600088E043789B46022B00D085E0C5796B1120
:1050700001224A4C1340190123781026B343AD1185
:105080002A4052010B4320218B4313432370070016
:1050900009378378C5782D021D434519AF4262D286
:1050A0007B780B2B09D0012398467B78042B6BD19E
:1050B000EB1B9BB29A46002423E0FB7898463B7892
:1050C000FF18F2E766003619F600354B1B689E198B
:1050D00029E0230020E0B268324B9A4232D1D84610
:1050E00030E02E4823004A463900133001F096F98B
:1050F0004F442D4B1B78A342D0D200203DE0013419
:10510000E4B2294B1B78A342F3D3284A002AE0D00B
:10511000A342D7D8E31ADBB2002B37D15E00F318D5
:10512000DB00234EF618002E32D05246390001988B
:10513000B368984781460828E1D98245DFD34346C2
:10514000012BC8D000229045CBD9BB789B18DBB28D
:105150001249C918C978FF291CD11049CB18DC7035
:105160000132D2B2EFE7134B002B15D000E000BFA5
:10517000012002E0002000E0002003B03CBC90468B
:105180009946A246AB46F0BD0020F6E70020F4E7C2
:105190000020F2E70020F0E70120EEE7EC1000200D
:1051A000C40D0020DD5F00105917002031460010AB
:1051B0005C8100100000000070B504000D008B78C9
:1051C000C87800021843020AC0B20F2A52D89300CE
:1051D0002F49CB589F46FFF783FC0200122329007A
:1051E000200000F0D3FC70BD2A4B002B44D000E01F
:1051F00000BF002842D08278C3781B02134302000C
:105200002900200000F0C2FCEDE7022A08D0224B62
:10521000002B35D000E000BF002804D10020E2E7D9
:10522000FFF762FCF8E78278C3781B0213430200A1
:105230002900200000F0AAFCD5E72B796979090242
:105240001943FFF755FC00281CD003780200290001
:10525000200000F09BFCC6E7104B002B14D000E0B0
:1052600000BF002812D0037802002900200000F0BF
:105270008DFCB8E70020B6E70020B4E70020B2E7D5
:105280000020B0E70020AEE70020ACE70020AAE74E
:10529000D0800010000000000000000000000000AE
:1052A000024B5878431E9841C0B27047EC10002062
:1052B000024B18784007C00F7047C046EC10002022
:1052C000034B1878FF38431E9841C0B27047C04660
:1052D0007C0C002070B50500FFF7F2FF041E01D022
:1052E000200070BD532200212348FEF7DBFF234E30
:1052F0003000FBF7C1FC224B1E60224E3000143000
:10530000FBF7E0FC300001F0CBFB1F4B1E601F4B96
:10531000002B04D01E48FFF78BF91E4B18600026A7
:105320000BE072009219D1001A4B1B685B18002B1E
:10533000D6D01B6898470136F6B2154B1B78B3429E
:1053400010D3124A002A0BD0B342EAD8F31ADBB2C8
:10535000002BC5D15A00D318DA000F4B9B18E6E793
:105360003300F5E70D4B1D702800FFF715FD2800F1
:10537000FFF7DEFC0124B3E7EC100020A4100020AE
:1053800040110020600C0020441100203146001024
:1053900059170020C40D00205C8100107C0C0020F7
:1053A00010B584B001AB0024019408345C70029005
:1053B00003911100180001F033FC04B010BD00008F
:1053C00070B50C00094B1D788B7870221A4201D001
:1053D000002070BD064B9978200000F0E5FF002802
:1053E000F7D021002800FFF725FDF2E77C0C002014
:1053F000EC100020F0B5C64600B582B001900C005C
:1054000016001D00089B9846002704E042461370D2
:105410002378E4180137BE4214DD6378052B16D1DA
:10542000E3789B079B0FAB4213D121000198FFF754
:10543000C7FF002807D0A378DA09012AE6D1099A24
:105440001370E5E7012002B004BC9046F0BD0020D7
:10545000F9E70020F7E7000010B57F230B40C809EB
:105460005B0018183030044B18180330034B1968D0
:1054700000F056FF10BDC046EC1000204011002087
:1054800010B57F230B40C8095B0018183030044B5F
:1054900018180330034B196800F067FF10BDC046B1
:1054A000EC10002040110020F8B5CE46474680B5EC
:1054B000194800787F250D40CE096F00174CE4197C
:1054C000A4193034E478E40704D500200CBC9046DD
:1054D0009946F8BD114CE419A4193027B946A144E6
:1054E0004C46E4780127BC4667463C4327004C46BF
:1054F000E770FFF7C3FC0028E8D16D00074B5D198A
:10550000AE193036F37801229343F370F378033207
:105510009343F370DAE7C0467C0C0020EC100020C7
:1055200070B50F4B18787F240C40CD0962000D4BED
:105530009B185B193033DB789B0700D570BDFFF7F4
:10554000B7FC6300074CE41864193034E378022296
:105550001343E370E37801221343E370EEE7C046A0
:105560007C0C0020EC10002070B50F4B18787F24C5
:105570000C40CD0962000D4B9B185B193033DB7872
:105580009B0700D470BDFFF7A9FC6300074CE4182B
:1055900064193034E37802229343E370E378013AEC
:1055A0009343E370EEE7C0467C0C0020EC10002033
:1055B0007F230B40CA095B000349C91889183031A1
:1055C000C8788007C00F7047EC100020F0B5C646C1
:1055D00000B582B004000D00002000F019FB2B780C
:1055E00060221340602B00D186E1402B11D02A7835
:1055F000D206D20ED1B2012900D1CAE052B2002A9D
:1056000014D0022900D10DE1002002B004BC904664
:10561000F0BDC64B002B00D170E1180000F0F8FA85
:105620002A000121200000E000BFEEE7202B0AD075
:10563000002B00D06AE16B78092B00D968E19B0050
:10564000BB4AD3589F462B790F2B00D958E1B94A52
:10565000D318DB78B84A002A05D0B84A12789342AA
:1056600011D39B1ADBB2002B00D04BE15A00D318A8
:10567000DA00B3498918002900D145E12A00200049
:10568000FFF7D2FCC1E75A00D318DA00AD4B196816
:105690008918F0E7280000F0C1FAA9782000FFF788
:1056A0005DFBA44A137802210B4313700120ACE781
:1056B000A04B5B786A460632137001232900200054
:1056C00000F064FA0120A0E7AE789A4B5B78DBB279
:1056D000B34205D0974B5B78002B09D1002E13D134
:1056E000944B5E702900200000F034FA01208CE712
:1056F0002000FFF7BFFB8F4FBB7898462000FFF7D5
:105700004BFC4346BB70E9E731002000FFF79AFCF1
:105710000028E5D179E729002000FFF74DFD74E767
:10572000AA78EB781B021343012B01D000206CE711
:10573000804A137808210B4313702900200000F0E1
:1057400009FA012061E7AA78EB781B021343012BC9
:1057500001D0002059E7774A137808218B43137052
:105760002900200000F0F6F901204EE7714B1A786D
:105770005109920801230B4002210A4013436A4653
:105780000632138002232900200000F0FFF90120D7
:105790003BE72B790F2B00D9BCE0664AD318DB78A6
:1057A000654A002A05D0654A1278934228D39B1A8D
:1057B000DBB2002B00D0AFE05A00D318DA0060490A
:1057C0008918002900D1A9E02A002000FFF72CFC4D
:1057D000002800D019E72B7860221A4200D014E785
:1057E0006B780A3B012B00D90FE700F011FA6B78B8
:1057F0000A2B0CD02900200000F0ACF9012004E7AE
:105800005A00D318DA004F4B19688918D9E76B464C
:105810009A1D0023137001332900200000F0B6F90F
:105820000120F2E629797F220A40CE097020084241
:1058300076D152003F4882189219D27C3E48002807
:1058400005D03E480078824212D3121AD2B2002A02
:1058500015D150008218D000394E3618002B10D0C8
:10586000002E5FD02A0031002000FFF7DDFBCCE6E0
:1058700050008218D000334A16683618EEE700262A
:10588000ECE76B78012B12D0002B03D0032B0ED04A
:105890000020BAE62000FFF78BFE6B469A1D1080B1
:1058A00002232900200000F071F90120ADE6A8785C
:1058B000EA781202024304D1012B19D02000FFF72D
:1058C0002FFE002E30D02A0031002000FFF7ACFB65
:1058D000002000F09DF9174A3423D05CC007C00FA8
:1058E00000D092E62900200000F034F901208CE677
:1058F0002000FFF739FEE4E7002086E6002084E67A
:10590000002082E6002080E600207EE600207CE683
:1059100000207AE6002078E6002076E6002074E693
:10592000002072E6002070E601206EE60000000014
:1059300010810010EC100020314600105917002093
:105940005C810010C40D002030B585B000F0E1FC92
:10595000002808D105B030BD01AC2078FFF75EFB10
:1059600022795C4B9A705C4B1C686269EFF3108182
:1059700072B61368002BFCD0BFF35F8FA16101A941
:10598000200001F02FF86269A369BFF35F8F002147
:10599000116083F310880028DCD001AB5B78082B02
:1059A000E1D89B004D4AD3589F4601AB1878FFF7CA
:1059B00035FB4B4B002BD6D000E000BFD3E7454B67
:1059C0001A78012401210A431A703322995CA143F9
:1059D0009954995C0420814399540132995CA14304
:1059E0009954995C8143995401AB187802A9FFF747
:1059F000EDFD0028B7D101AC20780021FFF758FA5F
:105A000020788021FFF754FAADE701AB19797F22A6
:105A10000A40CC0950002F4B1B181B193033D87883
:105A20000125A843D870D8780335A843D870002A38
:105A30001FD05200274B9A181219D37C294A002AEA
:105A400005D0294A127893421AD39B1ADBB2002B55
:105A500000D07FE75A00D318DA00244B9B18002BA4
:105A600000D177E71C6901A84279039B0078A04721
:105A700079E701A84279039B007800F0DDF872E72E
:105A80005A00D318DA001A4B1B689B18E7E7114B32
:105A90001B78DB0700D466E7164B002B00D162E7CA
:105AA0000C4B18780007C00F00E000BF5BE7094B04
:105AB0001B78DB0700D456E70F4B002B00D152E7D1
:105AC00000E000BF4FE7029B002B00D14BE703989B
:105AD000984748E7EC10002044110020388100105E
